:020000040800F2
:10000000F06F0020A102000897090008C103000852
:1000100093090008CD080008C50A00080000000088
:100020000000000000000000000000009909000826
:1000300091090008000000000F0300089B09000858
:10004000BB020008BB020008BB020008BB0200089C
:10005000BB020008BB020008BB020008BB0200088C
:10006000BB020008BB020008BB020008BB0200087C
:10007000D1080008BB020008F1080008BB02000814
:100080001109000831090008BB020008BB02000882
:10009000BB020008BB020008BB020008BB0200084C
:1000A000BB020008BB020008BB020008BB0200083C
:1000B000BB0200086D0A0008990A0008BB0200088C
:1000C000BB020008BB020008BB020008BB0200081C
:1000D000BB020008BB020008BB020008BB0200080C
:1000E000BB020008BB020008BB020008BB020008FC
:1000F000BB020008BB020008BB020008BB020008EC
:10010000BB020008BB020008BB020008BB020008DB
:10011000BB020008BB020008BB020008BB020008CB
:10012000BB020008BB02000851090008BB0200081E
:10013000BB020008BB020008BB020008BB020008AB
:10014000BB020008BB020008BB020008BB0200089B
:10015000BB020008BB02000871090008BB020008CE
:10016000BB020008BB020008BB020008BB0200087B
:10017000BB020008BB020008BB0200080000000030
:10018000BB020008BB020008BB020008BB0200085B
:10019000BB020008BB020008BB0200080000000010
:1001A000BB020008BB020008BB02000800F002F816
:1001B00000F066F80AA090E8000C82448344AAF19B
:1001C0000107DA4501D100F05BF8AFF2090EBAE899
:1001D0000F0013F0010F18BFFB1A43F0010318477B
:1001E0001C7B00003C7B000010F8013B0A4413F02C
:1001F000030408BF10F8014B1D1108BF10F8015B84
:10020000641E05D010F8016B641E01F8016BF9D172
:10021000002D15D010F8014B03F00C030C2BA1EBB3
:1002200004040ABF10F8013BA4EB8314A4EB0324DD
:1002300005F1010314F8016B5B1E01F8016BF9D5A0
:10024000914238BF10F8013BD1D3704700230024FE
:1002500000250026103A28BF78C1FBD8520728BFD6
:1002600030C148BF0B6070471FB506F0FCFF9DE82A
:10027000030000F0A1F900F029F91FBD10B510BD71
:1002800000F02CFA1146FFF7EFFF00F01AFB00F028
:1002900069FA03B4FFF7F2FF03BC00F09DFA000017
:1002A0000948804709480047FEE7FEE7FEE7FEE70A
:1002B000FEE7FEE7FEE7FEE7FEE7FEE70448054946
:1002C000054A064B70470000A5090008AD0100086B
:1002D000F04F0020F06F0020F05F0020F05F002062
:1002E000EFF3108072B6704780F310887047424A6F
:1002F0001368012B04D04FF0010313603F4A1060D4
:100300003F4A11603F484FF0805101607047EFF362
:10031000108272B63848016851B34FF00001016095
:100320003648016891B1EFF309811EF0100F08BF44
:1003300021ED108B21E9F00F4FF000041EF0100F9B
:1003400008BF012441F8044D006801602C49096888
:10035000096808C9B1E8F00F002B18BFB1EC108B89
:1003600081F309884EF0100E002B18BF2EF0100EEE
:1003700082F310884EF0040E704721490860EFF3B5
:10038000148222F0040282F314881C494FF000000A
:10039000086019494FF0010008601B481B49D0F85C
:1003A000002041EA0201016016484FF080510160CF
:1003B00017480068006880F3088861B662B6704725
:1003C0001EF0040F0CBFEFF30880EFF3098020E963
:1003D000F00F40F804ED40F804ED1EF0040F0CBFE0
:1003E00080F3088880F3098800B504F0D5FC5DF837
:1003F00004EB4EF0040E7047CC0F0020C40F002019
:10040000C80F002004ED00E020ED00E00000FFFF39
:1004100008ED00E010B5203AC0F00B80B1E81850AC
:10042000203AA0E81850B1E81850A0E81850BFF4DE
:10043000F5AF5FEA027C24BFB1E81850A0E818507D
:1004400044BF18C918C0BDE810405FEA827C24BFD1
:1004500051F8043B40F8043B08BF7047D20728BF5F
:1004600031F8023B48BF11F8012B28BF20F8023BAE
:1004700048BF00F8012B70474FF0000200B513464B
:1004800094469646203922BFA0E80C50A0E80C50B4
:10049000B1F12001BFF4F7AF090728BFA0E80C5065
:1004A00048BF0CC05DF804EB890028BF40F8042B5E
:1004B00008BF704748BF20F8022B11F0804F18BFCB
:1004C00000F8012B704770477047704770B5064CB5
:1004D0007C44064D7D4403E0206820448047241D71
:1004E000AC42F9D170BD00004878000048780000A7
:1004F00000487047C44F002070B5064600F03CF835
:10050000056806F10B0020F00704B4429CBF0020F0
:1005100070BD2B466A68BAB11068A04210D304F1CE
:10052000080188423CBF5068586007D351681019D1
:1005300041601168091B016058601460101D70BD96
:1005400013465268002AE7D12146284600F020F8D9
:100550000028DED170BD10B500F012F8006810BDA3
:1005600010B5044600F00CF8046010BD00F081B82E
:1005700000487047904F002000487047984F002077
:1005800000487047904F0020704770477047704791
:1005900038B504460A4600206946AFF300800028BB
:1005A00008BF38BD02460099204600F0C1F801207E
:1005B00038BD012000F0EAB8F8B5AFF30080054679
:1005C00000200C46102000BF0646A819A0420DD9F5
:1005D000324669460020AFF30080070008BF00F0F4
:1005E000D5F80098A04218BF0546C419FFF7C4FF0C
:1005F00005600746F01D20F007004619284600F068
:100600000AF8B44208BFF8BDA21B31463868BDE8FD
:10061000F84000F08DB800210160C0E9011070477A
:100620001020704770B50446051FFFF7A5FF00684E
:10063000002C14BF446870BD002C18BFAC423CBFF6
:1006400020466468F8D301680A18AA4218BF4560BA
:1006500003D12A6805461144016028684119A14266
:100660001CBF6C6070BD61686960216808442860C7
:1006700070BD10B500F00DF8016919B100220261DA
:10068000884701E08068804700F075F810B500F0F9
:1006900072F870B500F048F804680546A4B9202047
:1006A000FFF72AFF040011D0094900202C60C4E99B
:1006B00000010849A1602073206160610649A061C2
:1006C00009B100F06AF8E061204670BD00F053F80F
:1006D000000000008D060008000000007546FFF7CE
:1006E00047FFAE4605006946534620F007008546A1
:1006F00018B020B5FFF7E2FDBDE820404FF000063E
:100700004FF000074FF000084FF0000B21F00701F9
:10071000AC46ACE8C009ACE8C009ACE8C009ACE83C
:10072000C0098D467047000000487047CC4F00203C
:10073000034640688C46002818BF88423CBF0346E9
:100740004068F8D318681844884207D00CF10300B9
:1007500020F00700001D411A521A0146081D0A60C8
:10076000FFF760BF10B50446AFF300802046BDE838
:100770001040FFF78EBD10B5002000F039F8FFF7EC
:100780007DFDBDE81040012000F026B810B500F056
:1007900037F8BDE8104000F026B810B58820FFF704
:1007A000ABFE002801D00021017010BD802902D8C5
:1007B00008B1017809B100207047012100F8081B39
:1007C000704718B100F10802914201D00020704733
:1007D000002101707047000001491820ABBEFEE700
:1007E000260002007047002801D0FFF7F5BF7047D0
:1007F00010B500F047F8BDE81040FFF7F4BF000067
:1008000010B5012805D0002103A000F021F8012037
:1008100010BD09A1F8E7000053494752544D454D1A
:100820003A204F7574206F662068656170206D6591
:100830006D6F7279000000003A2048656170206D8C
:10084000656D6F727920636F727275707465640084
:1008500070B505460C460A2000E06D1C00F02AF831
:1008600035B128780028F8D102E0641C00F022F8A5
:1008700014B120780028F8D1BDE870400A2000F0BB
:1008800019B8000010B5002102A0FFF7E1FF012018
:1008900010BD0000534947414252543A2041626E14
:1008A0006F726D616C207465726D696E6174696FD1
:1008B0006E00000008B569468DF800000320ABBE4D
:1008C00008BD10B505F0F2F9002010BD00BFFEE72D
:1008D00010B520220121054803F067FD20B1202238
:1008E0000121024803F042FD10BD000000600240FB
:1008F00010B520220321054803F057FD20B1202226
:100900000321024803F032FD10BD000000600240E8
:1009100010B520220521054803F047FD20B1202213
:100920000521024803F022FD10BD000000600240D6
:1009300010B520220621054803F037FD20B1202202
:100940000621024803F012FD10BD000000600240C5
:1009500010B520220221054803F027FD20B12022F6
:100960000221024803F002FD10BD000000640240B5
:1009700010B520220721054803F017FD20B12022E1
:100980000721024803F0F2FC10BD000000640240A1
:10099000704700BFFEE77047704710B504F062FC77
:1009A00010BD000008B52D48006840F470002B49C8
:1009B00008602B48006840F0010029490860284879
:1009C0000830006840F080002549083108600020A8
:1009D000009002E00098401C00904CF250310098CA
:1009E0008842F7D31E480830006840F090001C4948
:1009F000083108600020009002E00098401C009040
:100A00004CF2503100988842F7D3154808300068FE
:100A100020F00300124908310860114800681149AC
:100A200008400F4908600846006820F480200860EC
:100A300000200B490831086000BF094808300068F1
:100A400000200028F9D108480549091D0860002048
:100A500003490C31086005F0BDF908BD88ED00E0E0
:100A600000380240FFFFF6FE1030002410B50221CE
:100A7000084805F035FD18B10221064805F02DFDA6
:100A80000421044805F02CFD18B10421014805F0AB
:100A900024FD10BD0004004010B50221084805F0F7
:100AA0001FFD18B10221064805F017FD0421044876
:100AB00005F016FD18B10421014805F00EFD10BD2A
:100AC0000008004000BFFEE770B50646002418E0AD
:100AD00004F1B000002100F0A6FA0021084600F061
:100AE000A2FA0021102000F09EFA002505E0012165
:100AF000304600F098FA681CC5B2802DF7DB601C08
:100B0000C4B2082CE4DB70BD00B595B014226DA111
:100B100010A8FFF77FFC70A000680F906FA000681E
:100B20000E906FA000680D906EA000680C906EA0F3
:100B300000680B906DA000680A906DA00068099095
:100B40006CA103C9CDE907016CA0006806906CA0F8
:100B5000006805906BA103C9CDE903016BA103C92E
:100B6000CDE90101082310AA0021084600F090FBFE
:100B700008230FAA0121002000F08AFB082306AAFF
:100B800001211E2000F084FB082305AA012130204A
:100B900000F07EFB08230EAA0221002000F078FB63
:100BA000082306AA02211E2000F072FB082305AAD2
:100BB0000221302000F06CFB08230DAA0321002045
:100BC00000F066FB082306AA03211E2000F060FB4C
:100BD000082305AA0321302000F05AFB08230CAAA1
:100BE0000421002000F054FB082306AA04211E2043
:100BF00000F04EFB082305AA0421302000F048FB3A
:100C000008230BAA0521002000F042FB082306AAB6
:100C100005211E2000F03CFB082305AA05213020F9
:100C200000F036FB08230AAA0621002000F030FB62
:100C3000082306AA06211E2000F02AFB082305AA85
:100C40000621302000F024FB082309AA07210020F8
:100C500000F01EFB082306AA07211E2000F018FB47
:100C6000082305AA0721302000F012FB082307AA59
:100C700001213A2000F00CFB082306AA01215E2086
:100C800000F006FB082305AA0121702000F000FBFC
:100C9000082303AA02213A2000F0FAFA082306AA40
:100CA0000221642000F0F4FA082305AA022176202C
:100CB00000F0EEFA082301AA0421402000F0E8FA2F
:100CC00015B000BD4E616D653A205061746866696B
:100CD0006E6465720000000042313A0042323A0010
:100CE00042333A0035763A0033333A0032353A002F
:100CF00031323A004733333A000000002E00000042
:100D0000760000004241543A000000004E6F726DC0
:100D1000616C210010B5224A12681069204A1268DD
:100D2000126912689168884700F01EFC1C4A12681C
:100D300050691B4A1268526912685168884700F06E
:100D400013FC174A12681069154A12681269126872
:100D50005168884700F008FC114A12685069104A2F
:100D60001268526912681169884760B10C4A1268AA
:100D700010690B4A1268126912689168884700F07E
:100D8000F3FB002010BD064A12681069044A12687D
:100D9000126912689168884700F0E6FB0120F1E7CC
:100DA0000000002070B504460D4600F095FB08B920
:100DB000002070BD204600F067F8FFF7ABFF30B9A8
:100DC00000F0F8FA01200D4908700020F1E72846EC
:100DD00000F05AF8FFF79EFF00F07EFB611CC8B2DE
:100DE00000F052F8FFF796FF00F00AF8064600F010
:100DF00043FB00F0DFFA3046DBE700001E00002076
:100E000070B5082500241F4A126850691D4A1268EF
:100E1000526912685168884723E06006040E194A37
:100E200012681069174A1268126912689168884737
:100E300000F09AFB134A12681069124A126812698C
:100E400012685168884700F08FFB0E4A126850699B
:100E50000C4A1268526912681169884708B144F057
:100E60000104281EA5F10101CDB2D6D1054A1268B0
:100E70001069044A1268126912689168884720460E
:100E800070BD00000000002070B5044608252FE06A
:100E90001F4A126810691E4A126812691268916826
:100EA000884700F061FB04F0800048B1184A1268DE
:100EB0005069174A1268526912685168884708E0F9
:100EC000134A12685069124A12685269126891688E
:100ED00088476006040E00F047FB0D4A126810694F
:100EE0000B4A1268126912685168884700F03CFB8F
:100EF000281EA5F10101CDB2CAD1054A12681069B8
:100F0000034A1268126912689168884770BD000030
:100F10000000002010B5094A12689068074A12685C
:100F20009268126851688847044A12689068034AB8
:100F30001268926812689168884710BD000000200E
:100F400010B500226B21D02000F079F8072219217A
:100F5000D02000F074F806221A21D02000F06FF89B
:100F600018221B21D02000F06AF801221C21D02079
:100F700000F065F810BD70B504460D4605F1B000EF
:100F8000002100F050F8102141EA1410002100F077
:100F90004AF804F00F00002100F045F870BD2DE97B
:100FA000FF5F074691461E460E9D4FF0000A002443
:100FB00035E0301B401EC1B20A2000F052FAB9FBE6
:100FC000F0F00A21B0FBF1F201FB1208BAF1000FB8
:100FD00014D1701EA04211DDB8F1000F0CD1AB4648
:100FE00005EBDB71491001FB0471C8B22B462022CE
:100FF000019900F047F810E04FF0010AAB4605EB0D
:10100000DB71491001FB0471C8B208F13001CAB2AA
:101010002B46019900F036F800BF601CC4B2B44200
:10102000C7DBBDE8FF9F70B504460D461DB1E0B2B9
:1010300000F018F902E0E0B200F07EF970BD70B582
:1010400006460C46154600F047FA08B9002070BD68
:101050003046FFF719FFFFF75DFE18B900F0AAF957
:101060000020F4E72046FFF70FFFFFF753FE284666
:10107000FFF70AFFFFF74EFE00F09CF900F0EAF9D7
:101080000120E4E72DE9F04707460E4690469946D1
:1010900000250024A8F12000C5B27F2F02DD002723
:1010A000B01CC6B2B9F1100F24D131463846FFF753
:1010B00062FF002408E004EB0511194A505C01218D
:1010C000FFF7B1FF601CC4B2082CF4DB701CC1B286
:1010D0003846FFF750FF002409E004EB0511083102
:1010E0000F4A505C0121FFF79EFF601CC4B2082C20
:1010F000F3DB12E031463846FFF73DFF00240AE0FB
:1011000005EB4501074A02EB4101085D0121FFF7AC
:101110008AFF601CC4B2062CF2DBBDE8F087000039
:10112000A27400087A7200082DE9F0414FF424758A
:1011300026488688012440E004EB4402234B33F820
:10114000122002EB4202224B03EB420204EB440367
:101150001E4F07EB43035B8832F8132000EE902A02
:10116000F8EE600AB0EE600A1A4A1268506C194A2A
:101170001268526C12689168884704EB4400394643
:1011800001EB4000808896FBF0F0C31707463A4613
:101190001148006801F01EF80F480068407850B907
:1011A0000C490968486C0B490968496C09684A6828
:1011B0000021904703E0601C84B2AC42BCDD0020FB
:1011C000054909684870BDE8F0810000580000201A
:1011D0002800002000000020040000202DE9F0413C
:1011E00005462C461E4A126890681D4A126892688D
:1011F00012689168884700262DE0274607F080078F
:10120000802F09D1164A1268D068154A1268D26830
:1012100012685168884708E0114A1268D068104A7D
:101220001268D2681268916888476006040E0C4AFA
:10123000126890680A4A1268926812685168884772
:10124000074A12689068064A1268926812689168A4
:101250008847701CC6B2082ECFDBBDE8F0810000C5
:101260000000002010B5044600F086F97820FFF752
:10127000B5FFFFF74FFE4020FFF7B0FFFFF74AFE34
:101280002046FFF7ABFFFFF745FE00F0C3F810BDA7
:101290002DE9F04104460F461546984600260FE01A
:1012A000AA5D434639462046FFF7ECFE04F10800EC
:1012B000C4B2782C02DD0024B81CC7B2701CC6B2C0
:1012C000A85D0028ECD1BDE8F081000010B54321F5
:1012D000D020FFF767FD164908704421D020FFF7A2
:1012E00061FD134948704521D020FFF75BFD10498F
:1012F00088704621D020FFF755FD0D49C870472161
:10130000D020FFF74FFD0A4908714821D020FFF790
:1013100049FD074948714121D020FFF743FD0549A8
:1013200008704221D020FFF73DFD0249487010BDF2
:10133000120000201800002010B5044600F01CF92F
:101340007820FFF74BFFFFF7E5FD0020FFF746FF92
:10135000FFF7E0FD2046FFF741FFFFF7DBFD00F060
:1013600059F810BD10B53B21D020FFF71BFD1049E7
:1013700008703C21D020FFF715FD0D4948703D2134
:10138000D020FFF70FFD0A4988703E21D020FFF7DB
:1013900009FD0749C8703F21D020FFF703FD04492C
:1013A00008714021D020FFF7FDFC0149487110BDB4
:1013B0000C00002010B5164A12681069144A126811
:1013C000126912689168884700F0CEF8104A1268D6
:1013D00050690F4A1268526912689168884700F094
:1013E000C3F80B4A12681069094A12681269126838
:1013F0005168884700F0B8F8054A12685069044AF5
:101400001268526912685168884700F0ADF810BD43
:101410000000002010B50E4A126890680C4A12684D
:101420009268126851688847094A1268D068084A69
:101430001268D268126891688847054A1268D068B5
:10144000034A1268D26812685168884710BD0000CC
:101450000000002041F2883000E0401E0028FCD14E
:10146000704710B50246012000E050430B1EA1F169
:101470000104E1B2F9D110BD10B5164A1268106925
:10148000144A1268126912689168884700F06CF873
:10149000104A126850690F4A1268526912685168FE
:1014A000884700F061F80B4A12681069094A12680F
:1014B000126912685168884700F056F8054A1268A8
:1014C0001069044A1268126912689168884700F02E
:1014D0004BF810BD0000002010B5224A1268506978
:1014E000204A126852691268516888471D4A12687A
:1014F00010691C4A1268126912685168884700F026
:1015000033F8184A12685069164A1268526912680C
:101510001169884708B9002010BD124A1268506945
:10152000104A1268526912689168884700F01CF8E6
:101530000C4A126850690B4A1268526912681169A4
:10154000884708B10020E7E7064A12685069054A53
:101550001268526912689168884700F005F8012006
:10156000DAE70000000000201E2001E0411EC8B2A2
:101570000028FBD17047000010B5124A126890682D
:10158000104A126892681268516888470D4A1268BA
:10159000D0680C4A1268D268126851688847094AB4
:1015A0001268D068074A1268D26812689168884742
:1015B000044A12689068034A126892681268916837
:1015C000884710BD0000002010B50021AE20FFF7B5
:1015D0002AFD00210846FFF726FD00211020FFF715
:1015E00022FD00214020FFF71EFD0021B020FFF763
:1015F0001AFD00218120FFF716FD0021FF20FFF7D3
:1016000012FD0021A120FFF70EFD0021A620FFF70B
:101610000AFD0021A820FFF706FD00213F20FFF76B
:1016200002FD0021C820FFF7FEFC0021D320FFF7B8
:10163000FAFC00210846FFF7F6FC0021D520FFF751
:10164000F2FC00218020FFF7EEFC0021D820FFF7FC
:10165000EAFC00210520FFF7E6FC0021D920FFF776
:10166000E2FC0021F120FFF7DEFC0021DA20FFF789
:10167000DAFC00211220FFF7D6FC0021DB20FFF767
:10168000D2FC00213020FFF7CEFC00218D20FFF797
:10169000CAFC00211420FFF7C6FC0021AF20FFF791
:1016A000C2FC10BD2DED108B86B04FF0000AD34662
:1016B0000020059000BF1E248146049003900290F4
:1016C000002500260190009000BF00BF0027804643
:1016D00000BFA74A1268D06AA54A1268D26A126887
:1016E000D1688847012809DBA1490968C86AA0496F
:1016F0000968C96A09688A6805A990479C4A1268FE
:10170000906A9B4A1268926A1268D16888470128D9
:1017100009DB97490968886A95490968896A0968EF
:101720008A6805A990479DF8140033281ED006DC6E
:10173000002843D0112809D0222846D10CE04428A3
:101740001CD0552822D066283FD12BE04FF0000A4C
:10175000D346A14604943DE04FF0000AD3466042D0
:101760000FFA80F9604200B2049033E04FF0000AB3
:10177000D34660420FFA80F904942BE04FF0000A40
:10178000D346A146604200B2049023E0BBF1000FB3
:1017900007D14FF0010B04F10A0004B2502C00DD18
:1017A000502417E0BAF1000F07D14FF0010AA4F15D
:1017B0000A0004B2002C00DA00240BE04FF0000A0B
:1017C000D346D1460020049004E04FF000090020E9
:1017D000049000BF00BF664A1268D06B644A12686A
:1017E000D26B1268D16888470390614A1268106C06
:1017F0005F4A1268126C1268D16888470290039899
:10180000A9EB000005B202990498401A06B2062D11
:1018100003DA15F1060F00DD0025062E03DA16F1B6
:10182000060F00DD0026002005F027FA41EC1B0B17
:10183000284605F022FA41EC1F0B9FED4E0B53ECAE
:10184000102B05F081FA41EC1D0B0199681A05F087
:1018500014FA41EC1F0B9FED490B53EC102B05F0D4
:1018600073FA41EC1E0B53EC1D2B04F0CBFF41EC43
:101870001C0B53EC1B2B04F0C5FF41EC190B384635
:1018800005F0FBF941EC1A0B53EC192B04F0BAFFED
:1018900041EC180B05F0C2F907B2002005F0EDF994
:1018A00041EC1B0B304605F0E8F941EC1F0B9FEDB6
:1018B000310B53EC102B05F047FA41EC1D0B00994E
:1018C000701A05F0DAF941EC1F0B9FED2C0B53EC6D
:1018D000102B05F039FA41EC1E0B53EC1D2B04F0D4
:1018E00091FF41EC1C0B53EC1B2B04F08BFF41ECE4
:1018F000190B404605F0C1F941EC1A0B53EC192BBA
:1019000004F080FF41EC180B05F088F90FFA80F81D
:10191000B7F5617F01DD4FF4617717F5617F00DA7C
:10192000184FB8F5617F01DD4FF4617818F5617FDC
:1019300001DADFF8508000BF01950D490968486B56
:101940000B490968496B09684A6839469047084954
:101950000968886B06490968896B09684A684146C5
:1019600090470A2200230848006800F033FCB0E6E4
:10197000000000209A9999999999E93F9A99999923
:101980009999B93F7CFCFFFF0400002004490160E5
:101990004FF48061018103A1416001218172704790
:1019A000A51600085441534B5F4D4F544F52000051
:1019B00010B504460221034802F0B7FEC0F1200032
:1019C00080B210BD0064024030B589B004460D46B7
:1019D00040F6164003F0DCF841F2041003F0D8F8AA
:1019E00040F6014003F0D4F8C0220721524802F02B
:1019F000A4FEC023012202214F4802F0DCFEC023D6
:101A0000022200214C4802F0FDFE4C4804F014FE76
:101A10004FF40041494804F092FE2946474804F03B
:101A200097FD0021454804F092FE0021434804F050
:101A3000AEFE0021414804F09AFE04213F4804F024
:101A40008EFE08213D4804F09AFE01221146252011
:101A500002F064FF394804F06DFE4021374804F07D
:101A600059FE8021354804F05DFE012211464620D2
:101A700002F054FF012211463A2002F04FFF68465F
:101A800002F042FE07212E4802F0D9FB40200690CA
:101A9000002002900390049007902848001D0090B9
:101AA000012001904FF4403008906A4607212448F5
:101AB00002F07EFD0721224802F0A1FB042207214B
:101AC0001F4802F089FB102207211D4802F02FFC5D
:101AD00007211B4802F070FB0221194802F0AFFBFE
:101AE00000200690201D02900020039020200790E7
:101AF0001248001D009001200190002004904FF436
:101B0000403008906A4602210D4802F051FD022142
:101B10000B4802F074FB04220221094802F05CFB2E
:101B200010220221064802F002FC0221044802F0C1
:101B300043FB09B030BD000000040240001001402A
:101B40000064024070B58AB004460E4600250221AA
:101B50001D4802F0EAFDC0F1200085B2002D2FDD06
:101B6000002003E0211D095C3154401CA842F9DB30
:101B70000221154802F063FB00200790201D03900E
:101B8000002004902020089010480190012002902D
:101B9000002005904FF44030099001AA02210A4824
:101BA00002F006FD0221084802F029FB042202216E
:101BB000054802F011FB0221034802F0FDFA00BFC4
:101BC00028460AB070BD00000064024004100140C5
:101BD00070B58AB006460C46154601A802F094FD81
:101BE0000721144802F02BFB4020079003940020AB
:101BF00004900590089510480190012002904FF440
:101C00004030099001AA07210A4802F0D1FC0422C1
:101C10000721084802F0E0FA0721064802F0CCFA52
:101C200000BF20220721034802F05BFB0028F8D008
:101C30000AB070BD006402400410014010B50446B3
:101C40000521034802F071FDC0F1200080B210BDF3
:101C50000060024030B589B004460D4640F615409C
:101C600002F096FF41F2110002F092FF40F60340AD
:101C700002F08EFF60220721524802F05EFD6023D1
:101C8000012202214F4802F096FD6023022200212A
:101C90004C4802F0B7FD4C4804F0CEFC4FF4004134
:101CA000494804F04CFD2946474804F051FC002106
:101CB000454804F04CFD0021434804F068FD002134
:101CC000414804F054FD04213F4804F048FD082138
:101CD0003D4804F054FD00221146262002F01EFE6D
:101CE000394804F027FD4021374804F013FD8021D6
:101CF000354804F017FD00221146112002F00EFEB7
:101D000000221146102002F009FE684602F0FCFC99
:101D100006212E4802F093FA4020069000200290FF
:101D20000390049007902848001D00900120019026
:101D30004FF4403008906A460621244802F038FCEF
:101D40000621224802F05BFA042206211F4802F015
:101D500043FA102206211D4802F0E9FA06211B4829
:101D600002F02AFA0521194802F069FA00200690CB
:101D7000201D029000200390202007901248001D93
:101D8000009001200190002004904FF44030089012
:101D90006A4605210D4802F00BFC05210B4802F0B4
:101DA0002EFA04220521094802F016FA1022052114
:101DB000064802F0BCFA0521044802F0FDF909B01A
:101DC00030BD0000000C02400044004000600240B2
:101DD00070B58AB004460E46002505211D4802F064
:101DE000A4FCC0F1200085B2002D2FDD002003E00F
:101DF000211D095C3154401CA842F9DB052115481E
:101E000002F01DFA00200790201D0390002004908E
:101E10002020089010480190012002900020059099
:101E20004FF44030099001AA05210A4802F0C0FB96
:101E30000521084802F0E3F904220521054802F0D3
:101E4000CBF90521034802F0B7F900BF28460AB0D4
:101E500070BD0000006002400444004070B58AB0CC
:101E600006460C46154601A802F04EFC0621144811
:101E700002F0E5F9402007900394002004900590BB
:101E8000089510480190012002904FF440300990CD
:101E900001AA06210A4802F08BFB04220621084809
:101EA00002F09AF90621064802F086F900BF2022C6
:101EB0000621034802F015FA0028F8D00AB070BDD8
:101EC000006002400444004010B50446012103486C
:101ED00002F02BFCC0F1200080B210BD0060024077
:101EE00030B589B004460D4640F6154002F050FE6C
:101EF00041F2120002F04CFE40F6034002F048FEB0
:101F00004FF440720721534802F017FC4FF440731E
:101F1000012202214F4802F04EFC4FF4407302228E
:101F200000214C4802F06EFC4B4804F085FB4FF456
:101F30000041494804F003FC2946474804F008FBE7
:101F40000021454804F003FC0021434804F01FFC35
:101F50000021414804F00BFC04213F4804F0FFFB42
:101F600008213D4804F00BFC01220221272002F049
:101F7000D5FC394804F0DEFB4021374804F0CAFBA9
:101F80008021354804F0CEFB012202210C2002F012
:101F9000C5FC012202210E2002F0C0FC684602F0BE
:101FA000B3FB03212D4802F04AF94020069000209F
:101FB00002900390049007902748001D0090012094
:101FC00001904FF4403008906A460321234802F004
:101FD000EFFA0321214802F012F9042203211F48DD
:101FE00002F0FAF8102203211C4802F0A0F90321A4
:101FF0001A4802F0E1F80121184802F020F9002007
:102000000690201D02900020039020200790124887
:10201000001D009001200190002004904FF44030FA
:1020200008906A4601210D4802F0C2FA01210B48CE
:1020300002F0E5F804220121084802F0CDF8102250
:102040000121064802F073F90121044802F0B4F8B6
:1020500009B030BD000C0240004800400060024062
:1020600070B58AB004460E46002501211D4802F0D5
:102070005CFBC0F1200085B2002D2FDD002003E0C5
:10208000211D095C3154401CA842F9DB012115488F
:1020900002F0D5F800200790201D03900020049046
:1020A0002020089010480190012002900020059007
:1020B0004FF44030099001AA01210A4802F078FA51
:1020C0000121084802F09BF804220121054802F092
:1020D00083F80121034802F06FF800BF28460AB0D8
:1020E00070BD0000006002400448004070B58AB036
:1020F00006460C46154601A802F006FB03211448CB
:1021000002F09DF840200790039400200490059071
:10211000089510480190012002904FF4403009903A
:1021200001AA03210A4802F043FA042203210848C5
:1021300002F052F80321064802F03EF800BF2022C8
:102140000321034802F0CDF80028F8D00AB070BD92
:10215000006002400448004070470146002070477C
:1021600070477047704770B505460C46206810B13F
:10217000206803F07BFD70BD70B505460C462068F5
:1021800010B1206803F0FCFC70BD38B505460C4664
:10219000207C00900022D4E90203616803F0A9FCCE
:1021A000206038BD70B505460C4614B1204603F0DA
:1021B00069FB70BD70B505460C4614B1204603F0AE
:1021C0004DFA70BD00210170417041608160C160B5
:1021D0000161704770B5064614461D46204603F05F
:1021E00001FB70BD7CB505460C460121A07ACDE906
:1021F000000123890022D4E9001003F006FA7CBD17
:10220000704770477047014670477047704700003D
:102210000149016070470000347C000801467047A6
:1022200070470246704770470149016070470000DF
:102230004C7C000810B504460122D4E9010102F0EB
:10224000ADFA10BD10B50446D4E9010102F0ABFAB5
:1022500010BD000010B5044640F6044002F098FCA2
:102260004FF4004300221146234802F0A4FA40F63E
:10227000034002F08DFC4FF40043002201211F486F
:1022800002F099FA4FF40043022200211B4802F0A9
:10229000B9FA00224FF40041184802F07FFA40F6E4
:1022A000014002F075FC4FF470630122114614489E
:1022B00002F081FA4FF4706302220021104802F00C
:1022C000A1FA4FF4406002F063FC072300220121D1
:1022D0000C4802F070FA072302220021094802F09C
:1022E00091FA01220621074802F058FA0022012142
:1022F000044802F053FA10BD00100240000C0240E6
:10230000000402400000024010B504460022D4E957
:10231000010102F043FA10BD10B50446D4E90101F1
:1023200002F03AFA10BD0000034B036000BF034BFC
:102330000360416082607047047C0008647C000890
:1023400010B504466068026851698847A068026851
:1023500051698847E068026851698847606A016886
:102360000A684FF4E1319047A06A01680A684FF4A7
:10237000E1319047E06A01680A684FF4E131904723
:10238000206B026811688847606B02681168884793
:10239000A06B026811688847E06B02681168884783
:1023A000206C026811688847606C02681168884771
:1023B00010BD00002DE9FE4F0446002020700C20C7
:1023C00001F0A6FC05464FF400426949FFF7ACFF57
:1023D000054660600C2001F09BFC05464FF48072BE
:1023E0006449FFF7A1FF054620610C2001F090FC35
:1023F00005464FF400725F49FFF796FF054660619E
:102400000C2001F085FC05464FF480625949FFF726
:102410008BFF0546A0600C2001F07AFC05464FF4C6
:1024200000625449FFF780FF0546E0600C2001F090
:102430006FFC054602225049FFF776FF0546A06172
:102440000C2001F065FC054601224B49FFF76CFFAB
:102450000546E0610C2001F05BFC0546042246497C
:10246000FFF762FF05462062442001F051FC8046E0
:10247000C3465846FFF7D8FE83464048CBF80000D5
:1024800000BFD846C4F824B0442001F041FC814686
:10249000CB465846FFF7C8FE83463948CBF80000C4
:1024A00000BFD946C4F828B0442001F031FC824670
:1024B000D3465846FFF7B8FE83463248CBF80000B3
:1024C00000BFDA46C4F82CB0442001F021FC0646D7
:1024D0002D49016000BF2D49016000BF20630C2021
:1024E00001F016FC0746002101F04EFA0746606332
:1024F0000C2001F00DFC0746012101F045FA0746CA
:10250000A063082001F004FC834602905846FFF7C0
:102510007FFE83461E48CBF8000000BFCDF808B010
:10252000C4F83CB0082001F0F3FB83460190584604
:10253000FFF76EFE83461748CBF8000000BFCDF8CA
:1025400004B0C4F840B0082001F0E2FB83460090DC
:102550005846FFF75DFE83460F48CBF8000000BFEA
:10256000CDF800B0C4F844B02046BDE8FE8F0000AE
:10257000001002400004024000000240BC7B000842
:10258000EC7B0008D47B0008247C0008847C0008D5
:10259000AC7C0008C47C0008DC7C000800BF0C4850
:1025A0000068407801280BD10A490968486C09493C
:1025B0000968496C09684A6863219047FEF7B4FDD1
:1025C0004FF47A72002302480068FFF703FEE6E743
:1025D0000400002000000020044901604FF48061E5
:1025E000018103A141600321817270479D2500088C
:1025F0005441534B5F47595A0000000092B00020ED
:10260000109001200F900E9000200D9000BF0C90B4
:102610000B900A90FDA207CA07AB07C3FEA2D2E93E
:1026200000109268CDE905020491FEF7CDFF00206D
:10263000FEF74AFA00BFFB480068006B0390F948B8
:102640000068006B006840680290DDE9021088476E
:10265000F4480068006B90ED0E0AF2480068006BC9
:10266000D0ED0D0A30EE600A8DED010A019804F0FC
:1026700089FD9FEDED0B53EC102BCDE902019DED93
:10268000020B51EC100B04F023FB1DD9E548006848
:10269000006B90ED0E0AE3480068006BD0ED0D0A68
:1026A00030EE600A8DED010A019804F06BFD9FED9C
:1026B000E00B53EC102BCDE902019DED020B51EC28
:1026C000100B04F03FFC01D201200C90D5480068AB
:1026D000006B90ED0D0AD3480068006BD0ED0F0A37
:1026E00030EE600A8DED010A019804F04BFD9FED7C
:1026F000CE0B53EC102BCDE902019DED020B51ECFA
:10270000100B04F0E5FA1DD9C6480068006B90ED87
:102710000D0AC4480068006BD0ED0F0A30EE600A65
:102720008DED010A019804F02DFD9FEDC10B53ECD6
:10273000102BCDE902019DED020B51EC100B04F0C2
:1027400001FC01D201200C90B6480068006BC06B00
:10275000019004F017FD9FEDB40B53EC102BCDE965
:1027600002019DED020B51EC100B04F0B1FA13D9EC
:10277000AC480068006BC06B019004F003FD9FED56
:10278000AC0B53EC102BCDE902019DED020B51EC8B
:10279000100B04F0D7FB01D201200C90A148006877
:1027A000006B006C019004F0EDFC9FEDA10B53EC6D
:1027B000102BCDE902019DED020B51EC100B04F042
:1027C00087FA13D997480068006B006C019004F0F9
:1027D000D9FC9FED990B53EC102BCDE902019DED37
:1027E000020B51EC100B04F0ADFB01D201200C9058
:1027F0008C480068006B406A019004F0C3FC9FEDB8
:10280000900B53EC102BCDE902019DED020B51EC26
:10281000100B04F05DFA13D982480068006B406A1F
:10282000019004F0AFFC9FED880B53EC102BCDE929
:1028300002019DED020B51EC100B04F083FB01D261
:1028400001200C9077480068006B806A019004F0CA
:1028500099FC9FED7F0B53EC102BCDE902019DED10
:10286000020B51EC100B04F033FA13D96D480068D9
:10287000006B806A019004F085FC9FED770B53ECB0
:10288000102BCDE902019DED020B51EC100B04F071
:1028900059FB01D201200C9062480068006BC06AAD
:1028A000019004F06FFC9FED6E0B53EC102BCDE903
:1028B00002019DED020B51EC100B04F009FA13D943
:1028C00058480068006BC06A019004F05BFC9FED03
:1028D000660B53EC102BCDE902019DED020B51EC80
:1028E000100B04F02FFB01D201200C904D48006822
:1028F000006B006B019004F045FC9FED590B53EC0D
:10290000102BCDE902019DED020B51EC100B04F0F0
:10291000DFF913D943480068006B006B019004F0A5
:1029200031FC9FED510B53EC102BCDE902019DEDD5
:10293000020B51EC100B04F005FB01D201200C90AE
:1029400038480068006B806B019004F01BFC9FED21
:10295000480B53EC102BCDE902019DED020B51EC1D
:10296000100B04F0B5F902D90C9801284CD10D9840
:10297000B0BB01200D9040480068C068014603903C
:102980003D480068FFF716FC3B4800688068014638
:10299000039039480068FFF70DFC22480068C069C1
:1029A000039020480068C069006840680290DDE933
:1029B000021088471B480068006A039019480068A5
:1029C000006A006840680290DDE9021088470C98B0
:1029D000012806D1082304AA04214020FEF758FC50
:1029E00005E0082307AA04214020FEF751FC01203E
:1029F00010900C480068406C03900A480068406CD6
:102A000000684068632139E0A0E00000566F6C2048
:102A10004C6F772100000000566F6C2045727221C8
:102A200000000000000000200000000000000C403A
:102A300000000000000012400000000000001640EE
:102A4000666666666666E63F333333333333FB3F91
:102A500000000000000000400000000000000840EE
:102A600066666666666606406666666666660E400A
:102A70006666666666662540040000200290DDE911
:102A800002209047FE480068406C0390FC480068B4
:102A9000406C006880689FEDFB0A0290DDE902103F
:102AA0008847F748006880690390F54800688069A6
:102AB0000068C0680290DDE902108847C822002340
:102AC000F1480068FFF786FBED480068406C039012
:102AD000EB480068406C0068406800210290DDE926
:102AE000022090470B98401CC0B20B900B981928FD
:102AF00042D100200B90E248006880690390E048D2
:102B000000688069006840680290DDE9021088472B
:102B1000DB480068C0690390D9480068C069006854
:102B200040680290DDE902108847D5480068006AD5
:102B30000390D3480068006A006840680290DDE9AD
:102B4000021088470C98B8B900BFFEE70A98401CED
:102B5000C0B20A900A9802280ED100200A90C848F4
:102B60000068C0690390C6480068C0690068C06812
:102B70000290DDE902108847C14800684068039070
:102B8000BF4800684068006800690290DDE90210F3
:102B9000884728BBBC480068007808BB00BFB8481D
:102BA000006840680390B6480068406800680069A3
:102BB0000290DDE90210884720B9B3480068007828
:102BC0000028ECD0109880F0010010900120AE4950
:102BD00009680870AD480168AB480068FFF7CCFA97
:102BE000109800287ED00020A549096808700F9829
:102BF00028B1FDF789FF00200F9001200E90A0481A
:102C00000068006B90ED0F0ABCEEC00A10EE100ACF
:102C10000A21B0FBF1F201FB12000390082001230E
:102C2000009019461820039AFEF7B9F994480068F5
:102C3000006B90ED0F0AF2EE040A20EE200ABCEEC3
:102C4000C00A10EE100A0A21B0FBF1F201FB1200DB
:102C5000039008200123009019462420039AFEF7D0
:102C60009EF987480068006B90ED0F0ADFED880A37
:102C700020EE200ABCEEC00A10EE100A0A21B0FBBA
:102C8000F1F201FB12000390082001230090194685
:102C90002A20039AFEF783F979480068006B90EDCB
:102CA0000D0A77480068006BD0ED0F0A30EE600A1D
:102CB000BCEEC00A10EE100A0A21B0FBF1F201FBD3
:102CC0001200039008200123009002211820039A8B
:102CD000FEF765F96A480068006B90ED0D0A6848D8
:102CE000006800E08DE2006BD0ED0F0A30EE600A64
:102CF000F2EE040A20EE200ABCEEC00A10EE100A22
:102D00000A21B0FBF1F201FB12000390082001231D
:102D1000009002212420039AFEF741F958480068E8
:102D2000006B90ED0D0A56480068006BD0ED0F0A5D
:102D300030EE600ADFED560A20EE200ABCEEC00A33
:102D400010EE100A0A21B0FBF1F201FB1200039011
:102D500008200123009002212A20039AFEF71FF980
:102D600047480068006B90ED0E0A45480068006B0C
:102D7000D0ED0D0A30EE600ABCEEC00A10EE100A6B
:102D80000A21B0FBF1F201FB12000390082001239D
:102D9000009003211820039AFEF701F938480068D3
:102DA000006B90ED0E0A36480068006BD0ED0D0AFE
:102DB00030EE600AF2EE040A20EE200ABCEEC00AF1
:102DC00010EE100A0A21B0FBF1F201FB1200039091
:102DD00008200123009003212420039AFEF7DFF846
:102DE00027480068006B90ED0E0A25480068006BCC
:102DF000D0ED0D0A30EE600ADFED250A20EE200A44
:102E0000BCEEC00A10EE100A0A21B0FBF1F201FB81
:102E10001200039008200123009003212A20039A26
:102E2000FEF7BDF816480068006B90ED100ABCEE86
:102E3000C00A10EE100A0A21B0FBF1F201FB1200E9
:102E4000039008200123009004211820039AFEF724
:102E5000A6F80B480068006B90ED100AF2EE040A29
:102E600020EE200ABCEEC00A10EE100A0A21B0FBC8
:102E7000F1F201FB1200039008200123009009E009
:102E8000000000200000774404000020080000201B
:102E90000000C84204212420039AFEF780F8FB4872
:102EA0000068006B90ED100A5FED070A20EE200A23
:102EB000BCEEC00A10EE100A0A21B0FBF1F201FBD1
:102EC0001200039008200123009004212A20039A75
:102ED000FEF765F8ED480068006B90ED0B0ABCEE5C
:102EE000C00A10EE100A0A21B0FBF1F201FB120039
:102EF000039008200123009005211820039AFEF773
:102F00004EF8E2480068006B90ED0B0AF2EE040AFE
:102F100020EE200ABCEEC00A10EE100A0A21B0FB17
:102F2000F1F201FB1200039008200123009005211B
:102F30002420039AFEF733F8D4480068006B90ED24
:102F40000B0A5FED2D0A20EE200ABCEEC00A10EE3F
:102F5000100A0A21B0FBF1F201FB120003900820D5
:102F60000123009005212A20039AFEF718F8C7488C
:102F70000068006B90ED0A0ABCEEC00A10EE100A61
:102F80000A21B0FBF1F201FB12000390082001239B
:102F9000009006211820039AFEF701F8BB4800684C
:102FA000006B90ED0A0AF2EE040A20EE200ABCEE55
:102FB000C00A10EE100A0A21B0FBF1F201FB120068
:102FC000039008200123009006212420039AFDF796
:102FD000E6FFAE480068006B90ED0A0A5FED540A08
:102FE00020EE200ABCEEC00A10EE100A0A21B0FB47
:102FF000F1F201FB1200039008200123009006214A
:103000002A20039AFDF7CBFFA0480068006B90EDE3
:10301000090ABCEEC00A10EE100A0A21B0FBF1F258
:1030200001FB1200039008200123009007211820C3
:10303000039AFDF7B4FF95480068006B90ED090A0C
:10304000F2EE040A20EE200ABCEEC00A10EE100ACE
:103050000A21B0FBF1F201FB1200039008200123CA
:10306000009007212420039AFDF799FF8748006804
:10307000006B90ED090A5FED7A0A20EE200ABCEEA3
:10308000C00A10EE100A0A21B0FBF1F201FB120097
:10309000039008200123009007212A20039AFDF7BE
:1030A0007EFF7A480068006B90ED0C0ABCEEC00A07
:1030B00010EE100A0A21B0FBF1F201FB120003909E
:1030C00008200123009019465820039AFDF767FF56
:1030D0006E480068006B90ED0C0AF2EE040A20EED8
:1030E000200ABCEEC00A10EE100A0A21B0FBF1F271
:1030F00001FB120003900820012300901946642070
:10310000039AFDF74CFF61480068006B90ED0C0AD4
:103110005FEDA10A20EE200ABCEEC00A10EE100AF4
:103120000A21B0FBF1F201FB1200039008200123F9
:10313000009019466A20039AFDF731FF5348006852
:10314000006B90ED0E0ABCEEC00A10EE100A0A21C8
:10315000B0FBF1F0039008200123009002215820D9
:10316000039AFDF71CFF49480068006B90ED0E0ABA
:10317000BCEEC00A10EE100A0A21B0FBF1F201FB0E
:103180001200039008200123009002215E20039A80
:10319000FDF705FF3D480068006B90ED0E0AF2EE6A
:1031A000040A20EE200ABCEEC00A10EE100A0A2122
:1031B000B0FBF1F201FB1200039008200123009004
:1031C00002216A20039AFDF7EAFE30480068006B8E
:1031D00090ED0E0A5FEDD20A20EE200ABCEEC00A86
:1031E00010EE100A0A21B0FBF1F201FB120003906D
:1031F00008200123009002217020039AFDF7CFFEE2
:103200000BE001202149096808700E9828B10120BF
:103210000F9000200E90FDF757FC1C480068406896
:1032200003901A4800684068006800690290DDE970
:103230000210884710BB16480068007801281DD18D
:1032400000BF12480068406803901048006840685A
:10325000006800690290DDE9021088470028F0D07C
:103260000B480068407808B9012000E000200849B8
:1032700009684870109880F001001090FA2200232D
:1032800003480068FEF7A6FFFFF7D5B9000000204D
:1032900004000020044901604FF48061018103A112
:1032A0004160022181727047FD2500085441534B53
:1032B0005F4843490000000086B000BF00BF1421F2
:1032C00001A8FDF7D9F8FDF73BFE00BFFEF74AF86D
:1032D000FDF7FCFF204800788DF804001E48407878
:1032E0008DF805001C4880788DF806001A48C078D3
:1032F0008DF80700184800798DF8080016484079C5
:103300008DF80900154800788DF80A0013484078B8
:103310008DF80B00114880788DF80C000F48C078AC
:103320008DF80D000D4800798DF80E000B480079DE
:103330008DF80F000A490968886A09490968896A8D
:10334000096814224B6801A99847642200230548A4
:103350000068FEF73FFFB9E70C00002012000020D4
:103360000000002004000020044901604FF4806147
:10337000018103A14160012181727047B9320008C7
:103380005441534B5F4D50550000000010B58AB0BA
:1033900004464FF4406001F0FBFB40F6024001F0B0
:1033A000F7FB41F2081001F0F3FB40F6164001F084
:1033B000EFFB4FF4403000F0F5FDF0230022032135
:1033C000534801F0F8F90F2300220321514801F07E
:1033D000F2F90021504800F032FF504801900120DE
:1033E0000290201D0390002004904FF4805005901F
:1033F00000200790082008908003099001AA00216E
:10340000454801F0D5F800221146434800F0E4FE9B
:103410000021414800F003FF00213F4800F0CCFEAE
:10342000002000F0B7FE012202213C484C3800F099
:1034300083FE0122110239484C3800F07DFE002144
:1034400036484C3800F0C0FD0822012133484C3882
:1034500000F07EFD01230422002130484C3800F0AA
:1034600003FE0123052219462C484C3800F0FCFDD0
:1034700001230622022129484C3800F0F5FD0123E2
:103480000722032125484C3800F0EEFD01230A22D3
:10349000042122484C3800F0E7FD01230B220521CE
:1034A0001E484C3800F0E0FD01230C2206211B4889
:1034B0004C3800F0D9FD01230D22072117484C3864
:1034C00000F0D2FD0022012114484C3800F0B4FD78
:1034D0000022012111484C3800F094FD0F484C386F
:1034E00000F082FD0D484C3800F079FD0B484C3857
:1034F00000F07FFD012002F075F908484C3800F01B
:1035000012FD012105484C3800F004FE0AB010BD40
:103510000000024000080240006402404C200140CC
:1035200010B52DED068B0446606803F0BDFB41EC41
:103530001A0B9FED5F0B53EC102B03F017FA41ECC5
:10354000190B9FED5D0B53EC102B03F0FDFB41ECD1
:10355000180B03F025F96062A06803F0A5FB41ECAD
:103560001A0B9FED530B53EC102B03F0FFF941ECBA
:10357000190B9FED510B53EC102B03F0E5FB41ECC5
:10358000180B03F00DF9A062E06803F08DFB41EC2D
:103590001A0B9FED470B53EC102B03F0E7F941ECAE
:1035A000190B9FED450B53EC102B03F0CDFB41ECB9
:1035B000180B03F0F5F8E062206903F075FB41ECAD
:1035C0001A0B9FED3B0B53EC102B03F0CFF941ECA2
:1035D000190B9FED390B53EC102B03F0B5FB41ECAD
:1035E000180B03F0DDF82063606903F05DFB41EC2C
:1035F0001A0B9FED2F0B53EC102B03F0B7F941EC96
:10360000190B9FED2D0B53EC102B03F09DFB41ECA0
:10361000180B03F0C5F86063A06903F045FB41ECAB
:103620001A0B9FED230B53EC102B03F09FF941EC89
:10363000190B9FED210B53EC102B03F085FB41EC94
:10364000180B03F0ADF8A063E06903F02DFB41EC2B
:103650001A0B9FED170B53EC102B03F087F941EC7D
:10366000190B9FED150B53EC102B03F06DFB41EC88
:10367000180B03F095F8E063206A03F015FB41ECAA
:103680001A0B9FED0B0B53EC102B03F06FF941EC71
:10369000190B9FED090B53EC102B03F055FB41EC7C
:1036A000180B03F07DF82064BDEC068B10BD000004
:1036B000000000000000B040666666666626424074
:1036C00010B50446002005490968087004480168DF
:1036D00002480068FEF747FD10BD0000040000200E
:1036E000080000200449416004A181604FF4FA7190
:1036F000C160022101747047C136000854494D452C
:103700005231000010B588B004464FF4406001F01B
:103710003FFA4FF4706300220221504801F04BF849
:103720004FF47063022200214C4801F06BF84FF413
:1037300070620121494801F000F84FF4885001F00F
:1037400027FA4FF0807001F059FA4548007828B9FF
:10375000444802F007FD0120414908700121414819
:1037600002F0CAFE0920ADF804000020ADF8060002
:10377000ADF8080040F2E73003900020ADF80A00F1
:103780008DF8100001A9374802F0B4FD0020ADF813
:1037900018000120ADF814000020ADF81A00ADF8B3
:1037A0001600ADF81C00ADF81E0005AA00212D483A
:1037B00002F06EFB05AA01212A4802F069FB05AA66
:1037C0000221284802F064FB05AA0321254802F0E3
:1037D0005FFB00221146234802F07DFC00220121FC
:1037E000204802F078FC002202211E4802F073FCFF
:1037F000002203211B4802F06EFC602200211948C0
:1038000002F03CFC60220121164802F037FC6022E5
:103810000221144802F032FC60220321114802F018
:103820002DFC002211460F4802F068FC0022012105
:103830000C4802F063FC002202210A4802F05EFC00
:1038400000220321074802F059FC064802F0EEFA74
:10385000044802F049FD08B010BD0000000002401D
:10386000BE0F00200000014070B505460C46287AC6
:1038700010B101287ED13FE0002C1EDD0022114650
:10388000404802F028FC602200213E4802F0F6FB8E
:10389000002211463B4802F031FC22460121394802
:1038A00002F019FC60220121364802F0E7FB0022F9
:1038B0000121344802F022FC1DE06242002131481F
:1038C00002F009FC602200212E4802F0D7FB002202
:1038D00011462C4802F012FC00220121294802F076
:1038E000FAFB60220121274802F0C8FB00220121D7
:1038F000244802F003FC42E0002C1EDD2246022197
:10390000204802F0E8FB602202211E4802F0B6FBCC
:10391000002202211B4802F0F1FB0022032119487A
:1039200002F0D9FB60220321164802F0A7FB002217
:103930000321144802F0E2FB1FE00022022111489B
:1039400002F0C9FB602202210E4802F097FB002220
:1039500002210C4802F0D2FB62420321094802F026
:10396000BAFB60220321074802F088FB00220321F2
:10397000044800E002E002F0C1FB00E000BF00BF2D
:1039800070BD000000000140034A026000BF034A0E
:103990000260017270470000347C0008947C0008CB
:1039A00010B586B0044641F2010001F0F1F840F68E
:1039B000024001F0EDF8C023002202212D4800F062
:1039C000FAFEC023022200212A4800F01BFFC02279
:1039D0000221284800F0B1FE274802F0C3FB002076
:1039E000ADF800006020ADF802000020ADF8040042
:1039F0004FF6FF7002900020ADF806008DF80C0025
:103A000069461D4802F076FC0320ADF816000A2036
:103A1000ADF810000020ADF814000120ADF8120040
:103A200004AA0021144802F0B1FC04AA01211248A2
:103A300002F0ACFC0A231A4603210F4802F068FD8D
:103A400000210D4802F08BFB02210B4802F045FDDE
:103A50000421094802F041FD0121074802F039FD27
:103A60000621054802F035FD034802F03DFC06B092
:103A700010BD0000000802400004004070B505467B
:103A80000024054802F067FB04B20021024802F05E
:103A900066FB204670BD00000004004010B586B0F3
:103AA000044641F2020001F073F840F6034001F0D1
:103AB0006FF84FF44053002202212E4800F07BFEA5
:103AC0004FF44053022200212A4800F09BFE4FF49D
:103AD00040520221274800F030FE274802F042FB06
:103AE0000020ADF800006020ADF802000020ADF825
:103AF00004004FF6FF7002900020ADF806008DF82C
:103B00000C0069461C4802F0F5FB0320ADF81600D6
:103B10000A20ADF810000020ADF814000120ADF827
:103B2000120004AA0021144802F030FC04AA01216A
:103B3000114802F02BFC0A231A4603210E4802F01A
:103B4000E7FC00210C4802F00AFB02210A4802F0BF
:103B5000C4FC0421084802F0C0FC0121064802F020
:103B6000B8FC0621044802F0B4FC034802F0BCFB98
:103B700006B010BD000C02400008004070B50546BC
:103B80000024054802F0E7FA04B20021024802F0DE
:103B9000E6FA604200B270BD0008004010B588B07F
:103BA000044640F6044000F0F3FF202300220221E7
:103BB000304800F000FE2023022200212D4800F0B2
:103BC00021FE202203212B4800F0B7FD41F2101006
:103BD00000F0DEFF4FF0807001F010F8264800780A
:103BE00028B9264802F0BEFA0120234908700121B5
:103BF000224802F081FC44F61F60ADF8040000206A
:103C0000ADF80600ADF80800632003900020ADF881
:103C10000A008DF8100001A9184802F06BFB002083
:103C2000ADF818000120ADF814000020ADF81A001E
:103C3000ADF81600ADF81C00ADF81E0005AA002175
:103C40000E4802F025F9002211460C4802F043FA12
:103C500060220021094802F011FA002211460748AB
:103C600002F04CFA054802F0E1F8044802F03CFB8F
:103C700008B010BD00100240BE0F002000400140FF
:103C800070B505460C4622460021074802F023FA8B
:103C900060220021044802F0F1F900221146024896
:103CA00002F02CFA70BD00000040014030B52DED4F
:103CB000028B85B00546B0EE408A00249FED120AC3
:103CC000C0EE088AB0EE680A00F04AF8F7EE000A83
:103CD00030EE600ABCEEC00A10EE100A84B2ADF8F5
:103CE00004400020ADF80600ADF808000394ADF8DC
:103CF0000A008DF8100001A9044802F0FBFA05B093
:103D0000BDEC028B30BD000020BC3E4D00400140A8
:103D100010B5040007D1012405E0FCF7E9FB0068B9
:103D200000B9044880472046FCF7E6FB0028F4D0A1
:103D300010BD00006D05000810B5002804DB0A075F
:103D4000130E054A135406E00A07140E034A00F046
:103D50000F031B1FD45410BD00E400E018ED00E079
:103D600010B52DED028BB1EEC08A18EE100A20F0CE
:103D70000040C0F1FF40C00F0AD010EE100A20F042
:103D80000040C0F1FF40C00F04BF0120FCF7E8FB7A
:103D9000B0EE480ABDEC028B10BD0000014609B927
:103DA00000207047C8B220B1C8B20E4A105C401C57
:103DB000F7E701F47F4028B10A48C1F30722805C8D
:103DC0000930EEE701F47F0028B10648C1F307424D
:103DD000805C1130E5E7034800EB11600078193092
:103DE000DFE70000927A000810B50948FEF7E2FA12
:103DF0000848FFF777FC0848FFF74CFA0748FDF73B
:103E0000C5FD0748FEF7E8FB0648FFF7ADFA10BD11
:103E100058100020B4100020C8100020D41000203A
:103E2000E0100020EC1000202DE9FC5F04468B46DA
:103E300015461E46DDE90C9ADDE90E7804F1140002
:103E40004060006000BF1C346560A660C4F80C9040
:103E5000C4F810A02321D4E9030201F04BF9D4E9FE
:103E6000033C63441A1F0F4BD4E9010100F0AAFF81
:103E70002060A77667760020E061C4F82080C4F84F
:103E80002480606120766065A0651C3C009023461C
:103E9000054A2146019004F1440001F059FE00203A
:103EA000BDE8FC9FB5560008F55800082DE9F0471D
:103EB00004460E4617469846DDF8209084F809908F
:103EC000607A20F001006072E66127620020A06243
:103ED000C4F82480002506E004F1140101EBC500BC
:103EE00001F007F86D1C012DF6DBBDE8F08770B519
:103EF0000546002406E005F1140101EBC40001F0C1
:103F000039F8641C012CF6DB70BD70B50446FCF773
:103F1000E7F90546206F10B12046216F88472846F3
:103F2000FCF7E2F970BD816841F00801816000BFD3
:103F3000816801F008010029FAD1816841F004018B
:103F4000816000BF816801F004010029FAD1704747
:103F500030B5012902D0022920D10FE06AB1102A20
:103F60000BD8C36A23F47003C362C36A541E4FF4B0
:103F7000700505EA04542343C36210E06AB1042AC1
:103F80000BD8836B23F440138363836B541E4FF46D
:103F9000401505EA04542343836300E000BF00BFDB
:103FA00030BD00000649096821F4E021054AC2F845
:103FB00004131146D1F804130143C2F804137047E7
:103FC000042301400020014021B1826842F40062D4
:103FD000826003E0826822F4006282607047816838
:103FE00041F4807181607047816841F400718160A3
:103FF0007047816801F0010119B9816841F0010140
:1040000081607047012902D0022912D108E083683B
:1040100023F040538360836843EA0273836009E0BE
:10402000836823F440138360836843EA0253836008
:1040300000E000BF00BF7047012902D0022910D163
:1040400007E0836823F070638360836813438360B1
:1040500008E0836823F470238360836813438360DC
:1040600000E000BF00BF7047F0B51D4606290CDA1E
:10407000436B01EB81071F26BE40B34301EB810672
:1040800002FA06F63343436322E00C290EDA036B8F
:104090008E1F06EB86071F26BE40B3438E1F06EB1E
:1040A000860602FA06F63343036311E010290FDA9D
:1040B000C36AA1F10C0606EB86071F26BE40B34378
:1040C000A1F10C0606EB860602FA06F63343C3623C
:1040D0000A2A0CDA046902EB42070726BE40B44301
:1040E00002EB420605FA06F63443046111E0122A97
:1040F0000FDCC468A2F10A0606EB46070726BE409D
:10410000B443A2F10A0606EB460605FA06F6344366
:10411000C460F0BD012902D002290AD104E08268FE
:1041200042F08042826005E0826842F48002826050
:1041300000E000BF00BF7047AAB101F480731BB15B
:10414000436843F48073436001F480631BB14368A8
:1041500043F48063436001F00203CBB1836843F012
:104160000203836014E001F480731BB1436823F4FD
:104170008073436001F480631BB1436823F4806360
:10418000436001F002031BB1836823F002038360E4
:10419000704700000649096821F01F01054AC2F86E
:1041A00004131146D1F804130143C2F804137047F5
:1041B000042301400020014010B501EB4102D3006F
:1041C00000F11002D25842F0010301EB4102D40089
:1041D00000F11002135110BD30B5134601EB41043C
:1041E000E50000F11004625922F0606242EA436285
:1041F00001EB4104E50000F11004625130BD10B53F
:1042000001EB4102D30000F11002D25822F4807376
:1042100001EB4102D40000F11002135110BD10B5A2
:1042200001EB4102D30000F11002D25842F4807336
:1042300001EB4102D40000F11002135110BD10B582
:1042400001EB4102D30000F11002D25822F0010329
:1042500001EB4102D40000F110021351002301EBE5
:104260004102D40000F11002135101EB4102D400CD
:1042700000F11402135101EB4102D40000F11802C5
:10428000135101EB4102D40000F11C02135101EB68
:104290004102D40000F12002135101EB4102D4008D
:1042A00000F12402135104290CDA01EB41025300FE
:1042B000C1F3400203EB82033D229A4083681A4314
:1042C00082600DE00A1FD1B201EB41025300C1F33D
:1042D000400203EB82033D229A40C3681A43C26046
:1042E00010BD10B5034604290FDA01EB410044006C
:1042F000C1F3400004EB800402FA04F01C68204083
:1043000008B1012010BD0020FCE7081FC1B201EB7D
:1043100041004400C1F3400004EB800402FA04F0C1
:104320005C68204008B10120ECE70020EAE730B5E6
:10433000802A0DD001EB4103DC0000F110031B5972
:10434000134301EB4104E50000F1100463510CE05C
:1043500001EB4103DC0000F124031B59134301EB83
:104360004104E50000F12404635130BD10B5042977
:104370000CDA01EB41035C00C1F3400304EB83035F
:1043800002FA03F38468234383600DE00B1FD9B264
:1043900001EB41035C00C1F3400304EB830302FA29
:1043A00003F3C4682343C36010BDF0B50346002582
:1043B00000260C46042979DA082A34D004DC012AC4
:1043C00007D0042A70D119E0102A41D0202A6BD1DD
:1043D00053E001EB41004700C1F3400007EB8007C9
:1043E00002FA07F01F6800EA070601EB4100C70068
:1043F00003F12400C05900F0800556E001EB4100B4
:104400004700C1F3400007EB800702FA07F01F687E
:1044100000EA070601EB4100C70003F11000C05994
:1044200000F0020541E001EB41004700C1F340000C
:1044300007EB800702FA07F01F6800EA070601EBA6
:104440004100C70003F11000C05900F004052CE042
:1044500001EB41004700C1F3400007EB800702FA7F
:1044600007F01F6800EA070601EB4100C70003F1EF
:104470001000C05900F0080517E001EB41004700AB
:10448000C1F3400007EB800702FA07F01F6800EA5B
:10449000070601EB4100C70003F11000C05900F00E
:1044A000100502E002E0FFE700BF7AE0201FC4B27F
:1044B000082A34D004DC012A07D0042A6FD119E07D
:1044C000102A41D0202A6AD153E004EB440047006F
:1044D000C4F3400007EB800702FA07F05F6800EAC8
:1044E000070601EB4100C70003F12400C05900F0AA
:1044F000800555E004EB44004700C4F3400007EB9F
:10450000800702FA07F05F6800EA070601EB410046
:10451000C70003F11000C05900F0020540E004EBB1
:1045200044004700C4F3400007EB800702FA07F09D
:104530005F6800EA070601EB4100C70003F11000C5
:10454000C05900F004052BE004EB44004700C4F31D
:10455000400007EB800702FA07F05F6800EA0706F1
:1045600001EB4100C70003F11000C05900F008053D
:1045700016E004EB44004700C4F3400007EB80075B
:1045800002FA07F05F6800EA070601EB4100C70086
:1045900003F11000C05900F0100501E0FFE700BF73
:1045A00000BF16B10DB10120F0BD0020FCE70000F6
:1045B00070B501EB4104E50000F12404645924F0D6
:1045C000040501EB4104E60000F12404A55101EBD0
:1045D0004104E60000F118041568A55101EB4104FF
:1045E000E60000F11C049568A55101EB4104E600CA
:1045F00000F11404D569A55101EB4104E50000F177
:10460000100463593F4C2340146944EA8404156A3A
:104610002C4395692C43234301EB4104E50000F151
:1046200010046351546874B901EB4104E50000F1D2
:104630001004645944F4007501EB4104E60000F1F4
:104640001004A5511FE05468012C0ED101EB410468
:10465000E50000F11004645924F4007501EB4104F5
:10466000E60000F11004A5510DE001EB4104E50066
:1046700000F11004645944F4004501EB4104E600E4
:1046800000F11004A551D46874B901EB4104E500B0
:1046900000F11004645944F4806501EB4104E60024
:1046A00000F11004A5510DE001EB4104E50000F11B
:1046B0001004645924F4806501EB4104E60000F124
:1046C0001004A551546974B901EB4104E50000F1EF
:1046D0001004645944F4807501EB4104E60000F1D4
:1046E0001004A5510DE001EB4104E50000F11004B8
:1046F000645924F4807501EB4104E60000F11004D4
:10470000A55170BD3F87FCFF002101600121416080
:10471000002181600121C16000210161012141610D
:1047200000218161C16101627047024601EB4100D5
:10473000C30002F11400C0587047F0B503461C6A6C
:104740005D6A00200DE00126864016403EB18700DC
:104750000F26BE40B443860001FA06F63443461CD9
:10476000B0B20828EFD3082011E001268640164099
:104770005EB1A0F10806B7000F26BE40B543A0F118
:104780000806B60001FA06F63543461CB0B21028FA
:10479000EBD31C625D62F0BDC16270470AB18161FA
:1047A00000E08162704702461069084008B10120AC
:1047B00070470020FCE7F0B504460D461646216818
:1047C000E268002019E0012787401F409FB14FEAAF
:1047D000400C032707FA0CF7B943470005FA07F71F
:1047E00039434FEA400C032707FA0CF7BA43470056
:1047F00006FA07F73A43471CB8B21028E3D3216002
:10480000E260F0BDF0B50C461546012C03D14668B8
:104810001E43466002E046689E434660826800216F
:104820000DE001268E401E403EB14F000326BE40E3
:10483000B2434E0005FA06F632434E1CB1B21029BF
:10484000EFD38260F0BD000029480068FDF7BAFC94
:1048500028480068FDF774FD274925480068FDF7E2
:10486000C1FC234909684860214800684168204824
:104870000068FDF797FC21491D480068FDF7B2FC70
:104880001B490968C8601A480068C1681848006870
:10489000FDF788FC1A4916480068FDF7A3FC144987
:1048A0000968886012480068816811480068FDF74F
:1048B00079FC14490E480068FDF794FC0C4909681E
:1048C00008610B480068016909480068FDF76AFC47
:1048D0000D48016806480068FDF757FC00BF4FF41B
:1048E0007A72002302480068FDF774FCF7E70000C5
:1048F0000400002000000020C8100020E01000206C
:10490000D4100020EC1000200800002010B5044650
:1049100000F0ACF9FFF798FF10BD00002DE9F04161
:1049200003460D46164600240027A0462A48006884
:1049300000F4E060B0F5E06F03D100BF4FF0040871
:1049400030E02548006800F4E060B0F5C06F03D1A6
:1049500001274FF0030825E01F48006800F4E060DD
:10496000B0F5A06F02D10227B8461BE01A480068D4
:1049700000F4E060B0F5806F03D103274FF0010829
:1049800010E01548006800F4E060B0F5407F03D106
:1049900004274FF0000805E04FF4A06000F020F875
:1049A0000227B846C7F1040005FA00F4C8F1040173
:1049B0000F20C8403040044324010848C45403F089
:1049C0001F01012088405911890001F1E021C1F83F
:1049D0000001BDE8F08100000CED00E000E400E023
:1049E00002490143024A1160704700000000FA05C5
:1049F0000CED00E030B51A4C436824681919884260
:104A000015D04B889BB9174B1B6899420FD0164B9A
:104A10001B688B4201D1144B18604B684360104BEC
:104A20001B68C31A0E4D4C682D682C44A3600C4CB7
:104A3000836824681A19824211D053887BB90A4BC3
:104A40001B68834201D1084B1A6043685360044BD2
:104A50001B68D31A024D44682D682C44A36030BDF6
:104A6000DC0F0020E00F0020E40F00202DE9F04FC4
:104A70008CB0064600200A903EA090E8004CC0682A
:104A8000CDE905BECDF810A007900FF2EC0ADAE9E7
:104A9000000ACDE9020A0FF2E00ADAE9000ACDE9DC
:104AA000000A38480068C0F381000B900B9820B1D1
:104AB000012804D0022828D103E0334927E03349F4
:104AC00025E03048001F006800F03F072D48001F18
:104AD0000068C0F3881C2B48001F0068C0F3014029
:104AE000401C4FEA40092748001F006800F4800876
:104AF000B8F5800F01D1254B00E0234BB3FBF7F055
:104B000000FB0CF0B0FBF9F101E01F4900BF00BF52
:104B10001C480068C0F3031404A8055D21FA05F2DF
:104B200018480068C0F3822402A8055D22FA05F047
:104B3000099014480068C0F342341DF8045022FA6A
:104B400005F0089036B1012E06D0022E06D0032EB5
:104B50000AD106E00A9108E00A9206E009980A9054
:104B600003E008980A9000E000BF00BF0A980CB06C
:104B7000BDE8F08F00000000000000000102030407
:104B800006070809083802400024F40000127A00E1
:104B9000074A02EB9011D1F8001800F01F03012220
:104BA0009A401143024B03EB9012C2F80018704771
:104BB00000300240074A02EB9011D1F8001800F0D3
:104BC0001F0301229A409143024B03EB9012C2F85B
:104BD0000018704700300240074A02EB9011D1F8EC
:104BE000001800F01F0301229A401143024B03EB0F
:104BF0009012C2F800187047003002406FF08071C8
:104C0000884205D1054909680140044A116004E061
:104C1000024909680143014A116070478C3802401B
:104C20001CB514200A214FF480730022CDE9001036
:104C3000044905A000F0E9FC0446204600F022FEED
:104C40001CBD00000D4900086D61696E0000000088
:104C500010B5044C02E020688047241D02488442BD
:104C6000F9D310BDF07C0008F47C000810B5044CAA
:104C700002E020688047241D02488442F9D310BD19
:104C8000F47C0008F87C000810B5FBF729FB04460B
:104C900004480088401C00B2024908802046FBF707
:104CA00023FB10BD3810002010B5FBF719FB04469C
:104CB0000C480088401E00B20A4908800846B0F936
:104CC000000000280ADC002008802046FBF70CFBCF
:104CD0000548006828B100F0CDFA02E02046FBF755
:104CE00003FB10BD381000203C10002070B50546B5
:104CF00005B970BD16480068854203D315480068A1
:104D0000854200D3F5E7A5F10C044FF0FF311248BE
:104D100000F080FB002060804FF4F55020800F48A9
:104D20000068844201D20D4804600949606809683E
:104D3000611A401A0A490968081A09490860204698
:104D4000FFF758FE044800F03CFB00BFD1E700002D
:104D5000DC0F0020E00F0020704E0020E40F002048
:104D6000EC0F002000487047F81000200048704702
:104D7000F84C002070B5FBF715FE01F02FF8FFF797
:104D800067FFFFF7F3FF0446FFF7ECFF05462146F8
:104D900000F096FB70BD00002DE9F041044604F1DF
:104DA0002805271D0648006840B1284604490968BF
:104DB000884706460EB9BDE8F08100BF00BFFEE798
:104DC000D00F0020F0B504460D461646301D20F0E9
:104DD000070044380146002203E00D4F41F82270DD
:104DE000521C112AF9D34D624FF0000CC1F828C0B3
:104DF000C1F82CC0C1F830C0C1F834C08B63CC639B
:104E00004FF0807CC1F840C000270F60F0BD00006B
:104E1000EFBEADDE10B5FBF763FA04460448007838
:104E2000401C034908702046FBF75EFA10BD0000E5
:104E3000D80F002010B5FBF753FA04460448007859
:104E4000401E034908702046FBF74EFA10BD0000D3
:104E5000D80F002070B504462068A0F1140528463C
:104E600000F0CAFC002070BD2DE9F04105460C465B
:104E70009046204600F01CFDB8F1000F03D0B8F1B9
:104E8000010F23D105E004F11401284600F049F890
:104E90001DE02E680FE0A6F1140794F8350097F88E
:104EA0003510884206DA04F1140107F1140000F00D
:104EB00038F802E03668AE42EDD100BFAE4204D110
:104EC00004F11401284600F02CF800E000BF00BFF8
:104ED0000020BDE8F08110B5044604F1140000F094
:104EE00002F8002010BD4060006070474060006024
:104EF00070474060006070470268516002680A6055
:104F00000160486070470268516002680A60016091
:104F1000486070470268516002680A60016048603A
:104F200070474268116042684A604160086070479B
:104F300001460868884201D1012070470020FCE743
:104F400001460868884201D1012070470020FCE733
:104F5000D0E900215160D0E900121160406000608A
:104F60007047D0E900215160D0E900121160406023
:104F700000607047D0E900215160D0E90012116053
:104F800040600060704700002DE9F041054615B90A
:104F90000020BDE8F081E81C20F003054E480068C1
:104FA000854201D90020F4E70C2D00D20C254FF0EA
:104FB000FF314A4800F02EFA49480068494909681B
:104FC000461A7EE04748006884196088002874D13A
:104FD00006F10C006168081AA8426ED306F10C00B5
:104FE0006168091A05F11800814230D306F10C00FE
:104FF00000EB05083B48006800EB08074FF4F5504C
:1050000038800020788060687860BE60C4F80480D2
:10501000012060803048796800680C30814205D0FA
:105020003049786809680844C0F808802E4801684B
:1050300005F10C0008442C4908602C4800680968F8
:10504000884219D2284800682849086014E00120E5
:105050006080244960680968611A401A2249096819
:10506000084421490860214800680968884203D241
:105070001D4800681D4908604FF4F550208018480D
:105080000068844212D107E015480068406815495D
:10509000096808441249086011480068408828B12E
:1050A0000F480068124909688842EDD10B4800F0AA
:1050B00088F904F10C006CE7FFE70A480068304407
:1050C000466805480068401BB0423FF67BAF034886
:1050D00000F077F900205CE7E80F0020704E002018
:1050E000E40F0020DC0F0020EC0F0020F00F002068
:1050F000E00F0020F0B50C460546E6B2042A15D3B1
:1051000000F0030797B9014646EA062343EA034342
:1051100004E008C108C108C108C1103A102AF8D239
:1051200001E008C1121F042AFBD20D4601E005F878
:10513000016B171EA2F10102F9D1F0BD2DE9F0417A
:1051400006460F46304600F045F80546E868FFF78A
:105150001BFF044614B90020BDE8F0810021204661
:10516000EA68FFF7C7FF26720020607208223946FE
:10517000204600F08AF9FBF7B3F8804604F10C01F1
:10518000281DFFF7B9FE4046FBF7AEF82046E3E7DF
:1051900070B5044600202072FBF7A2F8054604F122
:1051A0000C00FFF7D5FE2846FBF79EF82046FFF7D8
:1051B0009DFD70BD70B5044600202072FBF790F88D
:1051C000054604F10C00FFF7C3FE2846FBF78CF8F8
:1051D00070BD0000024600210AE0074800EB011004
:1051E0000078904203D1044800EB01107047491C3D
:1051F0000429F2DB0020F9E7F40F00202DE9F04745
:1052000004460D46904600262846FFF7E3FF074672
:10521000FFF73AFD7E6802E0A6F10C003668381D03
:105220008642F9D1FFF740FD45F080002072082248
:105230004146204600F029F9FBF752F8814604F177
:105240000C01381DFFF758FE4846FBF74DF8BDE846
:10525000F0870146087A00F0800008B1012070470D
:105260000020FCE710B5FFF7D5FD00F0A7FBFFF726
:10527000E1FD10BD2DE9F041FBF732F80746184873
:10528000008838BB17480068FEF788FD461E1648A0
:1052900050F83600A0F1140414480068844218D075
:1052A00013490E701148056804601248007850B91F
:1052B00004F11C0105F11C00FBF719F83846FBF757
:1052C00013F8BDE8F08104F11C0105F11C00FBF7A7
:1052D0000EF800BF3846FBF707F800BFF1E7000003
:1052E0003810002034100020904E00203C10002088
:1052F00040100020D80F002070B50446FAF7F0FFE8
:10530000054614F8340F20F00F0040F00100207023
:105310006278343C0A4B03EBC20004F1140142688A
:10532000116042684A604160086000BF0549A06B97
:1053300009680843034908602846FAF7D5FF70BD9D
:10534000904E00203410002070B50446FAF7C8FFD4
:10535000054604F11400D0E900215160D0E90012A3
:1053600011604060006000BF94F83510094A02EBFC
:10537000C1000168814201D1012100E0002129B171
:105380000548A16B00688843034908602846FAF77E
:10539000ABFF70BD904E0020341000202DE9F0418D
:1053A00004460D4616461F462A4602212046FFF7B0
:1053B00025FF2046FFF78FFDA68367720020BDE81A
:1053C000F08170B504460025FAF78AFF064604F11D
:1053D0001400FFF7ADFD28B904F11400FFF73AFD02
:1053E00001250EE0A08B4FF6FF71884203DAA08BF7
:1053F000401CA08305E03046FAF776FF6FF002000C
:1054000070BD3046FAF770FF012D01D1FFF732FF72
:105410000020F5E773B50546FAF762FF0646A88B4C
:10542000002806DDA88B401EA8833046FAF75CFFF3
:1054300028E0019828B93046FAF756FF6FF00100CE
:105440007CBD00F0F7F90446002020636A7A21460B
:1054500005F11400FFF708FD0198002809DD01AAF5
:10546000002104F1440000F013FB04F1440000F0BB
:1054700087FB3046FAF738FFFFF7FCFE206B08B1D8
:10548000206BDDE70020DBE7704770B50346A2B173
:1054900018460C4600BF14F8016B00F8016B3EB9CA
:1054A00002E0002500F8015B551E2A1EF9D102E03A
:1054B000551E2A1EEFD100BF00BF184670BD000068
:1054C0002DE9F04107468846F81C20F0030528F036
:1054D0000306182E08D9A6F11800A84204D3701BA1
:1054E00018381C49086001E0BDE8F0811A480560E1
:1054F00004684FF4F5502080164800680C30606056
:105500000020A0606080144960680968084413495D
:1055100008604FF4F5500968088001200F490968B8
:1055200048800C4800680C300C49096848600948FC
:1055300000680C300949096888600023012208A12D
:105540000948FFF72BFF044800680849086000BFBE
:10555000CAE70000E80F0020DC0F0020E00F002069
:105560006865617000000000704E0020E40F0020AC
:1055700010B500200B490880002405E00A4901EB22
:10558000C400FFF7B3FC641C202CF7DB1F20074985
:105590000870002006490860064908600648FFF7C1
:1055A000A5FC10BD38100020904E002040100020B7
:1055B0003C100020341000204410002070B5084832
:1055C0000068FEF7EBFB451E064850F83500A0F1D9
:1055D00014040548046004F11C00FAF7CEFE70BD07
:1055E00034100020904E00203C10002010B5002404
:1055F00005E0044901EBC400FFF77BFC641C002CB0
:10560000F7D010BD4C10002070472DE9FF5F064613
:105610000F4690461D46DDE90EAB31460120FFF7EF
:105620008DFD8146B9F1000F03D1002004B0BDE823
:10563000F09F2846FFF7A8FC044624B94846FFF728
:10564000A7FD0020F2E743463A46314648468DE83A
:10565000300CFEF7E9FB4846E8E7000070B5044669
:1056600094F8340000F00F00042801D1002070BD30
:1056700094F8340000F00F0010B12046FFF764FEEC
:105680002046FEF742FC04F1440000F04DFAFAF720
:1056900027FE0546042084F8340004F11401044870
:1056A000FFF731FC2846FAF71FFE0020DFE7000075
:1056B0004410002070B513480468FAF711FE05463F
:1056C0002046FEF722FC2046FFF73EFE042084F829
:1056D000340004F1440000F027FA2046FFF7B9FD3A
:1056E000012803D12046FFF765FD04E004F1140111
:1056F0000548FFF708FCFFF7BDFD2846FAF7F4FD63
:1057000070BD00003C1000204410002001E000F0BB
:1057100001F8FCE770B528E0FAF7E2FD054600BFA6
:1057200013480168814201D0012100E0002119B92C
:105730002846FAF7D9FD19E00D480068A0F11404D5
:1057400004F11400D0E900215160D0E90012116089
:105750004060006000BFA06AFFF7C8FA2046FFF76C
:1057600017FD2846FAF7C0FD00BFD5E700BF70BDA2
:10577000441000201FB520201F21C200074BCDE997
:105780000032CDE902100023054A06A1074800F0C7
:105790000FF8064800F076F81FBD0000704D00209D
:1057A0000D5700087469646C65000000F84C002017
:1057B0002DE9FF5F05460C4616461F46DDE910AB96
:1057C000DDE90E89224601212846FFF717FD3B46F9
:1057D0003246214628468DE8000FFEF725FB04B02F
:1057E000BDE8F09F70B50446204600F0C5F80546B8
:1057F000284600F025F870BD70B5044694F83400D2
:1058000000F00F00022802D04FF0FF3070BDFAF711
:1058100067FD054604F11400FFF7A3FB04F1440003
:1058200000F024FA2846FAF75FFD2046FFF764FDF2
:105830000020EBE701480068704700003C100020A2
:1058400031B5FAF74DFD05460D480468204600F0D5
:105850002FF86A46002104F1440000F019F904F120
:10586000440000F08DF92846FAF73EFDFFF702FDEF
:10587000206B801C08B900202063002038BD000088
:105880003C10002010B504463434A0786070617874
:10589000012088406060022004F834092046FFF7A8
:1058A000ABFFFFF7C7FF08B1FFF7E4FC002010BD16
:1058B00070B5044694F8340000F00F00012802D0BF
:1058C0004FF0FF3070BDFAF70BFD05462046FFF79D
:1058D0003BFD94F8340020F00F0040F0020084F803
:1058E000340004F1440000F0C1F92846FAF7FCFC4A
:1058F0000020E7E770B5044625466FF001002863F5
:1059000005F11400FFF72DFB2846FFF7F5FCFFF724
:10591000B1FC70BD70B5FAF7E3FC054614480468A5
:1059200094F8340000F00F0001281CD1D4E90510D0
:10593000814218D004F11400FFF713FB94F83520CE
:105940000C4B03EBC20004F1140142681160426881
:105950004A604160086000BF2846FAF7C5FCFFF7BF
:1059600089FC002070BD2846FAF7BEFC0020F9E74C
:105970003C100020904E00200146002902DA4FF032
:10598000FF3014E04FF47A7291FBF2F24FF47A7325
:1059900002FB03F01A4691FBF2F302FB13124FF4E1
:1059A0007A735A4302F2E73292FBF3F210447047E3
:1059B0000148006870470000D40F002010B50A4865
:1059C0000068401C08490860FFF734FF0446206C5B
:1059D000401E2064206C18B9E06B2064FFF79AFF2A
:1059E00000F004F810BD0000D40F00207CB568461C
:1059F000FFF77FFAFFF7DCFF0546FAF771FC064672
:105A00003AE022480068A0F11404A06A281A6FF056
:105A1000004188422ED22046FEF769FA607A00F0F3
:105A2000020018B9607A20F00100607204F11401DC
:105A30006846FFF76FFAD4E907108847FFF7B8FF09
:105A400005466846FFF77CFA00B115E004F1140042
:105A5000FFF790FA607A00F0020060B1607A00F01F
:105A6000010040B1607A20F001006072204600F031
:105A700087F800E005E000BF0448FFF761FA00285E
:105A8000BFD000BF3046FAF72FFC7CBD4C10002081
:105A90002DE9F04104460E461546FAF721FC07466B
:105AA000052E1ED2DFE806F00603090E1300606A19
:105AB000286017E02868606214E0607A20F0020035
:105AC00060720FE0607A40F0020060720AE0607A73
:105AD00000F0010010B10120286001E000202860E2
